:0200000036299F
:10000600103083120313FD00FD0B072800000800C3
:0400160000000800DE
:10001A00083083120313FC002330FD00FD0B132864
:06002A00FC0B1328080086
:1000300083120313E01B1E2886131F288617601BDC
:100040002328061324280617E01A282886122928B0
:100050008616601A2D2806122E28061659183228E0
:1000600086153328861106150B200611E0193A284B
:1000700086133B28861760193F2806134028061769
:10008000E01844288612452886166018492806126A
:100090004A28061659184E2886154F288611061527
:1000A0000B200611591C56280D2057280320080044
:0E00B0008312031358088A00570882000800C4
:1000BE008312031359105F08E0001820591408002A
:1000CE007928803083120313DB008C28C030DB00CC
:1000DE008C289430DB008C28D430DB008C288030C8
:1000EE00DB008C28831203135B08013A031968287E
:1000FE005B08023A03196D285B08033A031970284E
:10010E005B08043A0319732876285C03F0005B0839
:10011E00F0077008DB007008E00018205910DE01AF
:10012E005E085D07840000080319A5285E085D07B8
:10013E0084000008DF005F20DE0A972859140800AB
:10014E0083160313061186110612861206138613E2
:10015E0083120611861186130613861206120D20BF
:10016E000D200D208616061606150B2006110D20E5
:10017E0006150B2006110D2006150B2006110D205D
:10018E00061206150B2006110D2006150B20061162
:10019E008612861706150B2006110D2086130616DD
:1001AE0006150B200611061206150B2006110D2042
:1001BE0006150B200611061606150B2006110D202E
:1001CE00061206150B20061186170617861606163A
:0C01DE0006150B2006110D205914080016
:1001EA000729803083120313DB001A29C030DB0091
:1001FA001A299430DB001A29D430DB001A298030FE
:10020A00DB001A29831203135B08013A0319F62843
:10021A005B08023A0319FB285B08033A0319FE2814
:10022A005B08043A0319012904295C03F0005B08FE
:10023A00F0077008DB0059147008E0001820591004
:0A024A005D08E000182059140800B8
:1002540058208A110A128000840AD70A0319D80A7E
:08026400F003031D2A29080024
:10026C00F2210730831203139F0010308316850090
:10027C008601831285018601831605160610A720B8
:10028C000130E00018200C30E00018200130DB00B9
:10029C000130DC003030DD0067200630FB0013300D
:1002AC00FC00AD30FD00FD0B5929FC0B5929FB0B53
:1002BC005929000000000130E00018208230FC00B9
:1002CC00DD30FD00FD0B6829FC0B682900000000E7
:1002DC000130DB000130DC002030DD006720051A26
:1002EC00B329DA010A305A020318AE29851505150F
:1002FC000130E00018200130DB000130DC0043301D
:10030C00DD0067200230DB000130DC005030DD0006
:10031C0067200230DB000D30DC0030305A07DD0086
:10032C00F5200230DB000E30DC004130DD006720B0
:10033C000630FB001330FC00AD30FD00FD0BA42992
:10034C00FC0BA429FB0BA42900000000DA0A782975
:0E035C00851105110130E00018206E29B4292A
:1003E40020308400373083120313F000BA30D70072
:0803F4000130D8002A210800A5
:100374004D346F3474346F347234203444346534FF
:1003840073346C3469346734613464346F340034E6
:1003940049346E3469346334693461346C34693497
:1003A4007A3461346E3464346F342E342E342E3403
:0203B400003413
:0403B6007334003468
:1003BA004D346F3474346F34723420344C346934AD
:0A03CA006734613464346F3400348A
:0E03D400543465346D3470346F343A34003470
:02400E006A2125
:00000001FF
